:100000000C9434000C9453000C9498000C94510000
:100010000C9451000C9451000C9451000C9451001C
:100020000C9451000C9451000C9451000C9451000C
:100030000C9451000C9451000C940C010C94510040
:100040000C9451000C9451000C9451000C945100EC
:100050000C9451000C9451000C9451000C945100DC
:100060000C9451000C94510011241FBECFEFD8E026
:10007000DEBFCDBF11E0A0E0B1E0E0E2FFE002C0F2
:1000800005900D92AA30B107D9F721E0AAE0B1E0BE
:1000900001C01D92AE35B207E1F70E940C050C9429
:1000A0008E070C9400001F920F920FB60F9211242E
:1000B0008F939F93AF93BF9390915401809155017B
:1000C0009817A1F080914C0190914D01A0914E01A3
:1000D000B0914F010197A109B10980934C01909310
:1000E0004D01A0934E01B0934F0113C080914C017C
:1000F00090914D01A0914E01B0914F010196A11D2B
:10010000B11D80934C0190934D01A0934E01B0938B
:100110004F0189B182FB882780F980935401BF91F8
:10012000AF919F918F910F900FBE0F901F901895D8
:100130001F920F920FB60F9211248F939F93AF933C
:10014000BF9389B183FB882780F9809355019091F3
:100150005401809155019817A1F080914C01909124
:100160004D01A0914E01B0914F010197A109B10934
:1001700080934C0190934D01A0934E01B0934F0199
:1001800013C080914C0190914D01A0914E01B0910E
:100190004F010196A11DB11D80934C0190934D011B
:1001A000A0934E01B0934F01BF91AF919F918F915A
:1001B0000F900FBE0F901F90189552985398E9E634
:1001C000F0E08081856080838DB383608DBB7894FF
:1001D000089584B1866084B9E1E8F0E080818160AF
:1001E0008083E0E8F0E08081806A808380818360A2
:1001F0008083089585B5836085BDEEE6F0E080815B
:100200008260808385B5826085BD84B5806484BD4D
:100210008AEF87BD789408951F920F920FB60F92C0
:1002200011242F923F924F925F926F927F928F9202
:100230009F92AF92BF92CF92DF92EF92FF920F9375
:100240001F932F933F934F935F936F937F938F935E
:100250009F93AF93BF93EF93FF93CF93DF93CDB76C
:10026000DEB76C97DEBFCDBF2091400130914101D8
:1002700040914201509143016091440170914501C8
:1002800080914601909147010F2EF0EDAF2EF02D99
:100290000F2EF7E0BF2EF02DC12CD12CE12CF12C2C
:1002A00000E010E00E944F06A0E00E941C0729F524
:1002B00080910B0181110AC084EF91E090930F01AE
:1002C00080930E0181E080930B0117C080910B0198
:1002D000813051F48AEF90E090930F0180930E01EA
:1002E00082E080930B0109C086E09FEF90930F019D
:1002F00080930E0181E080930B01209140013091A9
:10030000410140914201509143016091440170913B
:1003100045018091460190914701A1E00E94FE06AF
:100320002093400130934101409342015093430197
:100330006093440170934501809346019093470177
:10034000209140013091410140914201509143017F
:10035000609144017091450180914601909147015F
:100360000F2EFAE0AF2EF02DB12CC12CD12CE12CA8
:10037000F12C00E010E00E944F06A0E00E941C0754
:1003800019F481E080930A012091400130914101EC
:1003900040914201509143016091440170914501A7
:1003A00080914601909147010F2EFAE0AF2EF02D7B
:1003B000B12CC12CD12CE12CF12C00E010E00E94DA
:1003C0004F06A0E00E941C0709F0FDC240914C01BD
:1003D00050914D0160914E0170914F018091480103
:1003E00090914901A0914A01B0914B019A01AB0152
:1003F000281B390B4A0B5B0BA8EEB3E00E94BA0531
:100400002AE030E040E050E00E949B0530930D016F
:1004100020930C0120910E0130910F0180910C016D
:1004200090910D01281B390B832F880F880B209387
:1004300038013093390180933A0180933B018093D6
:100440003C0180933D0180933E0180933F012091C8
:1004500038013091390140913A0150913B0160914E
:100460003C0170913D0180913E0190913F01A0902F
:100470002801B0902901C0902A01D0902B01E09072
:100480002C01F0902D0100912E0110912F010E945E
:10049000F506209328013093290140932A015093B7
:1004A0002B0160932C0170932D0180932E0190936A
:1004B0002F01209138013091390140913A0150913A
:1004C0003B0160913C0170913D0180913E01909112
:1004D0003F01A0903001B0903101C0903201D09026
:1004E0003301E0903401F090350100913601109114
:1004F00037010E940A072093200130932101409385
:10050000220150932301609324017093250180936D
:1005100026019093270180915A0190915B01A0914F
:100520005C01B0915D01A0903801B0903901C0909C
:100530003A01D0903B01E0903C01F0903D010091E8
:100540003E0110913F012091560130915701409199
:1005500058015091590129833A834B835C83309031
:1005600028012090290130912A01398740912B01DF
:100570004A8780902C0190902D0150912E015C8F24
:1005800020912F012B8F20915001309151014091EA
:100590005201509153012D833E834F8358873091F0
:1005A00020013B87409121014C87509122015D87BA
:1005B000209123012E87309124013F87409125010E
:1005C000488B50912601598B209127012A8B2C01B1
:1005D0003D01770C4408542C3201282F392F4A2F23
:1005E0005B2F642D742D842D942D0E94C5052B8BBB
:1005F0003C8B4D8B5E8B6F8B788F898F9A8F498068
:100600005A806B807C80770C4408542C3201A32CD8
:10061000B22CC984DA84E82CF92C0C8D1B8D29812D
:100620003A814B815C81642D742D842D942D0E9420
:10063000C505A22EB32EC42ED52EE62EF72E082FDA
:10064000192F2B893C894D895E896F89788D898D19
:100650009A8D0E94F50629833987242E852E962EA1
:100660007B8B8A87392E4D805E806F807884770CF3
:100670004408542C3201AB84BC84CD84DE84EF84E6
:10068000F88809891A892D813E814F815885642D0A
:10069000742D842D942D0E94C505A22EB32EC42E38
:1006A000D52EE62EF72E082F192F29813985422DB8
:1006B000582D692D7B898A85932D0E94F5062093FC
:1006C00018013093190140931A0150931B01609354
:1006D0001C0170931D0180931E0190931F012091B6
:1006E00018013091190140911A0150911B0160913C
:1006F0001C0170911D0180911E0190911F010F2E10
:10070000FAE0AF2EF02DB12CC12CD12CE12CF12C24
:1007100000E010E00E942006209318013093190198
:1007200040931A0150931B0160931C0170931D01AB
:1007300080931E0190931F0120911801309119019F
:1007400040911A0150911B0160911C0170911D0193
:1007500080911E0190911F01A0E00E941C0709F0EA
:100760000CF470C0209118013091190140911A01C8
:1007700050911B0160911C0170911D0180911E011F
:1007800090911F01A0900001B0900101C090020162
:10079000D0900301E0900401F09005010091060162
:1007A000109107010E94130791F08CF070910001E5
:1007B00060910101509102014091030130910401C7
:1007C00020910501909106018091070110C0709160
:1007D00018016091190150911A0140911B0130914B
:1007E0001C0120911D0190911E0180911F017093A9
:1007F0001001609311015093120140931301309343
:1008000014012093150190931601809317013091E4
:1008100010012091110180911201809113018091AA
:100820001401809115018091160180911701832F89
:10083000922F909389008093880010928B001092E1
:100840008A0091C0209118013091190140911A013C
:1008500050911B0160911C0170911D0180911E013E
:1008600090911F010E94AE06209318013093190148
:1008700040931A0150931B0160931C0170931D015A
:1008800080931E0190931F0120911801309119014E
:1008900040911A0150911B0160911C0170911D0142
:1008A00080911E0190911F01A0900001B090010164
:1008B000C0900201D0900301E0900401F090050186
:1008C00000910601109107010E94130791F08CF02E
:1008D000709100016091010150910201409103016A
:1008E000309104012091050190910601809107014A
:1008F00010C0709118016091190150911A01409136
:100900001B0130911C0120911D0190911E018091CD
:100910001F017093100160931101509312014093D5
:1009200013013093140120931501909316018093C5
:1009300017013091100120911101809112018091D5
:10094000130180911401809115018091160180910D
:100950001701832F922F90938B0080938A0010921F
:10096000890010928800709138016091390150918E
:100970003A0140913B0130913C0120913D01909121
:100980003E0180913F01709330016093310150939B
:100990003201409333013093340120933501909319
:1009A00036018093370180914C0190914D01A091C7
:1009B0004E01B0914F018093480190934901A0935B
:1009C0004A01B0934B016C960FB6F894DEBF0FBE90
:1009D000CDBFDF91CF91FF91EF91BF91AF919F91EB
:1009E0008F917F916F915F914F913F912F911F91C7
:1009F0000F91FF90EF90DF90CF90BF90AF909F90BE
:100A00008F907F906F905F904F903F902F900F90BE
:100A10000FBE0F901F9018950E9459050E94DD008F
:100A20000E94E9000E94FA008EE190E0A0E0B0E0B0
:100A300080935A0190935B01A0935C01B0935D0198
:100A400086E090E0A0E0B0E08093560190935701DB
:100A5000A0935801B09359018AE090E0A0E0B0E083
:100A60008093500190935101A0935201B093530190
:100A700080910A018823E1F360910E0170910F01CA
:100A8000072E000C880B990B0E947C0588E091E0F2
:100A90000E946D0560910C0170910D01072E000CF4
:100AA000880B990B0E947C0588E091E00E946D05FF
:100AB000DFCF1092C50087E68093C40086E0809364
:100AC000C20088E08093C1000895E0ECF0E09081DE
:100AD00095FFFDCF8093C6000895CF93DF93EC017F
:100AE0008881882331F021960E94650589918111C2
:100AF000FBCFDF91CF910895CF93DF93CDB7DEB7D2
:100B00002A970FB6F894DEBF0FBECDBFDC01CB0134
:100B10004AE0BE016F5F7F4F0E945907CE010196E8
:100B20000E946D052A960FB6F894DEBF0FBECDBFAA
:100B3000DF91CF910895052E97FB1EF400940E943B
:100B4000B20557FD07D00E94280707FC03D04EF4DA
:100B50000C94B20550954095309521953F4F4F4FDD
:100B60005F4F089590958095709561957F4F8F4F59
:100B70009F4F08950E944A07A59F900DB49F900D26
:100B8000A49F800D911D11240895DF93CF931F938F
:100B90000F939A9DF02D219FF00D8B9DF00D8A9D56
:100BA000E02DF10D039FF00D029FE00DF11D4E9D14
:100BB000E00DF11D5E9DF00D4F9DF00D7F936F9345
:100BC000BF92AF925F934F93D5010E944A078B016A
:100BD000AC01D7010E944A07EB01E80FF91FD601CB
:100BE0000E9415062F913F91D6010E944A07C60F19
:100BF000D71FE81FF91FAF91BF910E9415062F91D3
:100C00003F910E944A07C60FD71FE81FF91FD60160
:100C10000E944A07E60FF71F9801BE01CF01112479
:100C20000F911F91CF91DF9108950E944A07460FBF
:100C3000571FC81FD91F08F431960895689401C042
:100C4000E894F92FF12B12F00C945206A0E0B0E0DA
:100C5000ECE2F6E00C94C406092E059422F40E94FE
:100C6000AE06112392F4F0E80F26FFEFE094F09423
:100C700000951095B094C094D094A194BF0ACF0A67
:100C8000DF0AEF0AFF0A0F0B1F0B0E945D0607FC2D
:100C90000E94AE06CDB7DEB7ECE00C94E006689497
:100CA00001C0E8948F929F92CF93DF930E945D06DC
:100CB000DF91CF919F908F90089588249924F4011B
:100CC000E401B0E49F93AA279A158B049C04ED05D8
:100CD000FE05CF05D007A10798F4AD2FDC2FCF2F4D
:100CE000FE2FE92D982C892E982F872F762F652F90
:100CF000542F432F322F2227B85031F7BF9127C0EE
:100D00001B2EBF91BB27220F331F441F551F661F89
:100D1000771F881F991F881C991CEE1FFF1FCC1F6F
:100D2000DD1FAA1FBB1F8A149B04EC05FD05CE0521
:100D3000DF05A007B10748F08A189B08EC09FD09F8
:100D4000CE09DF09A00BB10B21601A94E1F62EF455
:100D50009401AF01BE01CD01000C0895609570951E
:100D60008095909530954095509521953F4F4F4FE8
:100D70005F4F6F4F7F4F8F4F9F4F08952F923F923E
:100D80004F925F926F927F928F929F92AF92BF929B
:100D9000CF92DF92EF92FF920F931F93CF93DF9347
:100DA000CDB7DEB7CA1BDB0B0FB6F894DEBF0FBEA4
:100DB000CDBF09942A88398848885F846E847D84F1
:100DC0008C849B84AA84B984C884DF80EE80FD80F3
:100DD0000C811B81AA81B981CE0FD11D0FB6F89469
:100DE000DEBF0FBECDBFED0108952A0D3B1D4C1D8A
:100DF0005D1D6E1D7F1D801F911F08950024A7FD9E
:100E000000942A0F301D401D501D601D701D801D57
:100E1000901D08952A193B094C095D096E097F0947
:100E2000800B910B08952A153B054C055D056E0559
:100E30007F058007910708950024A7FD00942A17D5
:100E40003005400550056005700580059005089542
:100E5000A1E21A2EAA1BBB1BFD010DC0AA1FBB1FBE
:100E6000EE1FFF1FA217B307E407F50720F0A21B30
:100E7000B30BE40BF50B661F771F881F991F1A949D
:100E800069F760957095809590959B01AC01BD01C7
:100E9000CF010895A29FB001B39FC001A39F700D21
:100EA000811D1124911DB29F700D811D1124911D72
:100EB0000895BB274A3031F4992322F4BDE290957E
:100EC00081959F4F0C946507BB27FB015527AA27E7
:100ED000880F991FAA1FA41710F0A41B83955051C7
:100EE000B9F7A05DAA3308F0A95DA193009779F73F
:100EF000B111B1931192CB010C947E07DC01FC017E
:100F0000672F71917723E1F7329704C07C916D933D
:100F100070836291AE17BF07C8F30895F894FFCFAE
:0A0F2000FF030000000000000A00BB
:00000001FF
